:020000040000FA
:060000000A128A11FC2F18
:100DF40083120313081008008312031388100800D9
:100E040083120313081408008312031388140800C0
:100E14008316031308158815080083120313080C9E
:100E2400F000700C0139162F080083120313080C0C
:100E3400F000F00C700C01391F2F0800831203130B
:100E440008108810831603130810881008000A126B
:100E54008A110A270A128A110A128A1120270A12F1
:100E64008A11342F0A128A110F270A128A11003AA2
:100E7400031D3D2F3E2F772F0A128A1117270A12BE
:100E84008A11003A031D472F482F772F0A128A111F
:100E940002270A128A110330F3008A30F200553017
:100EA400F100F10B532FF20B532FF30B532F5A2F47
:100EB4000A128A11FA260A128A110A128A110627BC
:100EC4000A128A110330F3008A30F2005530F1001F
:100ED400F10B6A2FF20B6A2FF30B6A2F712F0A1290
:100EE4008A11FE260A128A11772F0A128A110F27F5
:100EF4000A128A11013A031D802F812FB22F0A1280
:100F04008A1117270A128A11013A031D8A2F8B2F7F
:100F1400B22F0A128A1102270A128A118230F200B1
:100F2400DD30F100F10B942FF20B942F992F0A125C
:100F34008A11FA260A128A110A128A1106270A123B
:100F44008A118230F200DD30F100F10BA72FF20B91
:100F5400A72FAC2F0A128A11FE260A128A11342FE7
:100F64000A128A110F270A128A11013A0319BB2F98
:100F7400BC2FC72F0A128A1117270A128A11013AA5
:100F8400031DC52FC62F342FC72F0A128A1102271B
:100F94000A128A110230F3004530F200A930F10040
:100FA400F10BD22FF20BD22FF30BD22FD92F0A121F
:100FB4008A11FA260A128A110A128A1106270A12BB
:100FC4008A110230F3004530F200A930F100F10B30
:100FD400E92FF20BE92FF30BE92FF02F0A128A11F4
:100FE400FE260A128A11342F342F342F342F0A127A
:0C0FF4008A11002883010A128A11292F9B
:02400E00D4EFED
:00000001FF
